:0200000460009A
:10000000464346420004015600000000000303007E
:1000100001010000010400000002000000000000D7
:1000200000000000000000000000000000000000D0
:1000300000000000000000000000000000000000C0
:1000400000000000010407000000000000000000A4
:100050000000800000000000000000000000000020
:100060000000000000000000000000000000000090
:100070000000000000000000100010000000000060
:10008000EB04180A063204260000000000000000FD
:100090000504012400000000000000000000000032
:1000A0000000000000000000000000000000000050
:1000B0000604000000000000000000000000000036
:1000C0000000000000000000000000000000000030
:1000D00020041808000000000000000000000000DC
:1000E0000000000000000000000000000000000010
:1000F0000000000000000000000000000000000000
:1001000000000000000000000000000000000000EF
:100110000204180802200000000000000000000097
:1001200000000000000000000000000000000000CF
:10013000600400000000000000000000000000005B
:1001400000000000000000000000000000000000AF
:10015000000000000000000000000000000000009F
:10016000000000000000000000000000000000008F
:10017000FF30000000000000000000000000000050
:10018000000000000000000000000000000000006F
:10019000000000000000000000000000000000005F
:1001A000000000000000000000000000000000004F
:1001B000000000000000000000000000000000003F
:1001C000000100000010000001000000000000001D
:1001D000000000000000000000000000000000001F
:1001E000000000000000000000000000000000000F
:1001F00000000000000000000000000000000000FF
:0200000460009A
:10100000D10020410020006000000000301000608E
:1010100020100060001000600000000000000000D0
:10102000000000600000000400000000FFFFFFFF60
:10103000D2043041CC03AC04400FC068FFFFFFFF77
:10104000400FC06CFFFFFFFF400FC070FFFFFFFFAE
:10105000400FC074FFFFFFFF400FC078FFFFFFFF8E
:10106000400FC07CFFFFFFFF400FC080FFFFFFFF6E
:10107000400D803000002001400D8100001E000066
:10108000400FC01400010D40401F801400000000FC
:10109000401F801800000000401F801C000000005E
:1010A000401F802000000000401F8024000000003E
:1010B000401F802800000000401F802C000000001E
:1010C000401F803000000000401F803400000000FE
:1010D000401F803800000000401F803C00000000DE
:1010E000401F804000000000401F804400000000BE
:1010F000401F804800000000401F804C000000009E
:10110000401F805000000000401F8054000000007D
:10111000401F805800000000401F805C000000005D
:10112000401F806000000000401F8064000000003D
:10113000401F806800000000401F806C000000001D
:10114000401F807000000000401F807400000000FD
:10115000401F807800000000401F807C00000000DD
:10116000401F808000000000401F808400000000BD
:10117000401F808800000000401F808C000000009D
:10118000401F809000000000401F8094000000007D
:10119000401F809800000000401F809C000000005D
:1011A000401F80A000000000401F80A4000000003D
:1011B000401F80A800000000401F80AC000000001D
:1011C000401F80B000000010401F80B400000000ED
:1011D000401F80B800000000401F8204000110F989
:1011E000401F8208000110F9401F820C000110F915
:1011F000401F8210000110F9401F8214000110F9F5
:10120000401F8218000110F9401F821C000110F9D4
:10121000401F8220000110F9401F8224000110F9B4
:10122000401F8228000110F9401F822C000110F994
:10123000401F8230000110F9401F8234000110F974
:10124000401F8238000110F9401F823C000110F954
:10125000401F8240000110F9401F8244000110F934
:10126000401F8248000110F9401F824C000110F914
:10127000401F8250000110F9401F8254000110F9F4
:10128000401F8258000110F9401F825C000110F9D4
:10129000401F8260000110F9401F8264000110F9B4
:1012A000401F8268000110F9401F826C000110F994
:1012B000401F8270000110F9401F8274000110F974
:1012C000401F8278000110F9401F827C000110F954
:1012D000401F8280000110F9401F8284000110F934
:1012E000401F8288000110F9401F828C000110F914
:1012F000401F8290000110F9401F8294000110F9F4
:10130000401F8298000110F9401F829C000110F9D3
:10131000401F82A0000110F9401F82A4000110F9B3
:10132000401F82A8000110F9402F000010000004A7
:10133000402F000800030524402F000C060305245D
:10134000402F00108000001B402F00148200001B63
:10135000402F00188400001B402F001C8600001B3B
:10136000402F002090000021402F0024A0000019F1
:10137000402F0028A8000017402F002CA900001BB8
:10138000402F003000000021402F0004000079A809
:10139000402F004000000F31402F004400652922FB
:1013A000402F004800010920402F004C50210A081E
:1013B000402F008000000021402F00840088888892
:1013C000402F009400000002402F00980000000011
:1013D000402F009080000000402F009CA55A000F75
:1013E000CF000C1C402F003C00000001CC00140476
:1013F000402F009080000000402F009CA55A000C58
:10140000CF000C1C402F003C00000001CC00140455
:10141000402F009080000000402F009CA55A000C37
:10142000CF000C1C402F003C00000001CC001C042D
:10143000402F00A000000033402F009080000000EB
:10144000402F009CA55A000ACF000C1C402F003CE6
:1014500000000001CC000C04402F004C50210A0970
:0200000460009A
:102000000000E0811524006043240060A5640060A6
:1020100047240060492400604B2400600000000059
:102020000000000000000000000000004D240060DF
:102030004F24006000000000512400605324006021
:1020400055240060592400605D2400606124006014
:1020500065240060692400606D24006071240060C4
:1020600075240060792400607D2400608124006074
:1020700085240060892400608D2400609124006024
:102080009524006011250060112500601125006075
:10209000992400609D240060A1240060A5240060B4
:1020A000A9240060AD240060B1240060B524006064
:1020B000B9240060BD240060C1240060C524006014
:1020C000C9240060CD240060D1240060D5240060C4
:1020D000D9240060DD240060112500601125006016
:1020E0001125006011250060112500607942006013
:1020F0001125006011250060112500601125006088
:102100001125006011250060112500601125006077
:102110001125006011250060112500601125006067
:10212000E1240060E5240060E9240060ED24006003
:10213000F124006011250060112500601125006068
:102140001125006011250060112500601125006037
:102150001125006011250060112500601125006027
:102160001125006011250060112500601125006017
:102170001125006011250060112500601125006007
:1021800011250060112500601125006011250060F7
:1021900011250060112500601125006011250060E7
:1021A0001125006011250060F5240060F92400600D
:1021B00011250060112500601125006011250060C7
:1021C00011250060112500601125006011250060B7
:1021D00011250060112500601125006011250060A7
:1021E0001125006011250060112500601125006097
:1021F000FD240060112500600125006005250060B8
:102200001125006011250060092500600D25006082
:102210001125006011250060112500601125006066
:102220001125006011250060112500601125006056
:102230001125006011250060112500601125006046
:102240001125006011250060112500601125006036
:102250001125006011250060112500601125006026
:102260001125006011250060112500601125006016
:102270001125006011250060112500601125006006
:1022800011250060112500601125006011250060F6
:1022900011250060112500601125006011250060E6
:1022A00011250060112500601125006011250060D6
:1022B00011250060112500601125006011250060C6
:1022C00011250060112500601125006011250060B6
:1022D00011250060112500601125006011250060A6
:1022E0001125006011250060112500601125006096
:1022F0001125006011250060112500601125006086
:102300001125006011250060112500601125006075
:102310001125006011250060112500601125006065
:102320001125006011250060112500601125006055
:102330001125006011250060112500601125006045
:102340001125006011250060112500601125006035
:102350001125006011250060112500601125006025
:102360001125006011250060112500601125006015
:102370001125006011250060112500601125006005
:1023800011250060112500601125006011250060F5
:1023900011250060112500601125006011250060E5
:1023A00011250060112500601125006011250060D5
:1023B00011250060112500601125006011250060C5
:1023C00011250060112500601125006011250060B5
:1023D00011250060112500601125006011250060A5
:1023E0001125006011250060112500601125006095
:1023F000112500601125006011250060FFFFFFFF1F
:10240000DFF80CD000F06EF900480047FD8D006049
:102410000000E08172B63F483F4901600A6882F3DC
:1024200008883E4845F29571C5F2555101603C4817
:10243000016841F0040101603A48804762B63A48B9
:102440000047FEE7FEE7FEE7FEE7FEE7FEE7FEE702
:10245000FEE7FEE735480047354800473548004766
:10246000354800473548004735480047354800475C
:10247000354800473548004735480047354800474C
:10248000354800473548004735480047354800473C
:10249000354800473548004735480047354800472C
:1024A000354800473548004735480047354800471C
:1024B000354800473548004735480047354800470C
:1024C00035480047354800473548004735480047FC
:1024D00035480047354800473548004735480047EC
:1024E00035480047354800473548004735480047DC
:1024F00035480047354800473548004735480047CC
:1025000035480047354800473548004735480047BB
:102510003548004708ED00E00020006044C00A4054
:1025200040C00A408D86006001240060FD480060C4
:10253000854A0060BD4A0060F54A00602D4B00608E
:10254000654B00609D4B0060D54B00600D4C0060FA
:10255000454C0060354900606D490060A549006048
:10256000DD490060154A00604D4A00601125006099
:10257000F5780060117900602D790060497900607C
:1025800065790060817900609D790060B9790060AB
:10259000096600601966006029660060396600609F
:1025A000496E0060A96E0060096F0060696F00608D
:1025B00011250060112500601125006011250060C3
:1025C00011250060112500601125006011250060B3
:1025D000112500605D06E081112500601125006075
:1025E0001125006011250060112500602DE9F05FC4
:1025F0000546002092469B46884606468146402472
:102600001BE0284641464746224600F05AF853460A
:102610005A46C01A914110D311461846224600F07E
:1026200041F82D1A67EB01084F4622460120002190
:1026300000F038F817EB00094E41201EA4F1010408
:10264000DFDC484631462A464346BDE8F09F40EA73
:1026500001039B0703D009E008C9121F08C0042A20
:10266000FAD203E011F8013B00F8013B521EF9D207
:102670007047D2B201E000F8012B491EFBD270472F
:102680000022F6E710B513460A4604461946FFF73E
:10269000F0FF204610BD421C10F8011B0029FBD1A1
:1026A000801A7047202A04DB203A00FA02F1002049
:1026B00070479140C2F1200320FA03F31943904080
:1026C0007047202A04DB203A21FA02F000217047EB
:1026D00021FA02F3D040C2F120029140084319468A
:1026E00070470000064C074D06E0E06840F001032B
:1026F00094E8070098471034AC42F6D3FFF784FE05
:102700005C920060AC92006070B58C1810F8015BB0
:1027100015F0070301D110F8013B2A1106D110F87A
:10272000012B03E010F8016B01F8016B5B1EF9D17E
:102730002B0705D40023521E0DD401F8013BFAE704
:1027400010F8013BCB1A921C03E013F8015B01F86F
:10275000015B521EF9D5A142D8D3002070BD40F2D2
:10276000212CC8F2E01C604740F2810CC8F2E01C4A
:10277000604740F27D1CC8F2E01C604740F2BF0C8D
:10278000C8F2E01C604740F2231CC8F2E01C60471E
:102790002DE9F04105460C4600270026284603F0A7
:1027A00049F9FE4931F91080404600F059FF286888
:1027B00020F002002860284600F07FFA20783021BF
:1027C00001EA0010E1784FF4805202EA0131084337
:1027D000A17A4FF47F0202EA01410843217C1202F0
:1027E00002EA0161084361784FF4804202EA8131D4
:1027F00008432179D21002EAC1210843A17892004E
:1028000002EA41310843A17B802202EAC111084358
:10281000E17B402202EA81110843871C2F60618A14
:102820002089000461F30F0007466F60207D4FF0A0
:102830007F4101EA00606179520302EAC141084325
:10284000A179121102EAC131084394F82E10121135
:1028500002EAC12140EA0107AF6094F8300020216C
:1028600001EA401094F83110102202EA01110843E5
:1028700094F83210082202EAC1010843E86000BF60
:1028800028E006EB460204F1160111F812104FF091
:10289000407202EA016206EB460304F1160101EB05
:1028A000430149784FF4702303EA0141114306EBD9
:1028B000460304F1160202EB43025088C21700EBF4
:1028C0005272C2F3C702114305F1200242F82610EA
:1028D000701CC6B2032ED4DB207BC11700EB5171F4
:1028E000C910491E3C2202EA810155F8B82F114354
:1028F0002960E07AC11700EB5171C910491E3C22D2
:1029000002EA81016A6811436960B83DBDE8F0815F
:1029100010B50446002020706070A0700120E070A7
:10292000002020716071A0714FF6FF702081FF20A0
:10293000A0720820E07220730020A0730021E173D0
:10294000FF2121744FF6FF7161822021217518212A
:1029500004F11600FFF794FE002184F82E1084F88D
:10296000301084F8311084F8321010BD10B50446D0
:10297000204600F0A2F910BD2DE9F04104460D46B5
:10298000164600274FEA660800BF204600F0A4F96B
:102990000028FAD0002104F1600040F82810A9684E
:1029A00040F82610E8897E4901EA0040297B4FF46F
:1029B000004202EAC1310843297C4FF4787202EAEE
:1029C00041110843697C01F01F010843E97C4FF481
:1029D000F04202EAC1210843297D4FF4806202EAF5
:1029E0008121084304F1700141F8260004F18000C0
:1029F00050F826706B480740687E4FF0E04101EACE
:102A00000070698B684A02EA014108430743A87DC8
:102A100060B1687D4FF4706101EA0020A97D491E14
:102A20004FF4604202EA413108430743287E48B12F
:102A3000E87D00F00F00297E491EE02202EA4111E4
:102A40000843074304F1800040F8267029462046D9
:102A500002F0B2FF04F1C00141F82800287F30B134
:102A6000D4F8940020F00100C4F8940005E0D4F8F4
:102A7000940040F00100C4F89400B8F1000F0DD1AB
:102A800054F8940F20F0040020602068297F04226D
:102A900002EA8101084344F894090CE054F8940FC9
:102AA00020F0080020602068297F082202EAC10186
:102AB000084344F89409206820F002002060BDE833
:102AC000F0812DE9F04180460C4616461F4604B1C0
:102AD00005E04FF4147235A13CA005F04FFE4046CE
:102AE00002F0A8FF054618212046FFF7C9FD266120
:102AF0006761384840F82540374931F9150010F131
:102B0000800F00D10EE00146002909DB01F01F0310
:102B100001229A404B099B0003F1E023C3F80021F6
:102B200000BF00BFBDE8F0812DE9F04105460E462B
:102B300014460027B84606B105E040F267221BA103
:102B400022A005F01BFE04B105E04FF41A7217A194
:102B500022A005F013FE306810B141F6583878E035
:102B6000A0687060E068B060E068F060607902289A
:102B700000D100E001203060217905F1800050F89B
:102B8000210040F00041227905F1800040F8221038
:102B9000403555F82C0C40F01E0023E05A9200609E
:102BA0000000FFFF1F1000800000FF0F2E2E5C6E44
:102BB00078706C69625C6472697665725C66736C6D
:102BC0005F666C65787370692E63000068616E647F
:102BD0006C650000E00100805892006078666572C4
:102BE0000000000045F82C0C20682866E86F40F0D3
:102BF0000100E867A86F40F00100A867403D6079D8
:102C0000022802D06079032801D1A08987B2A07977
:102C10004FF4702101EA0040E179491E4FF0E06273
:102C200002EA01610843074345F8A47FE86840F0E1
:102C30000100E860A43D3068022805D140F62B0170
:102C4000284600F045F804E040F64B01284600F025
:102C50003FF84046BDE8F0812DE9F04107460C46BB
:102C6000154604B107E040F2A622AFF2C001AFF270
:102C7000A40005F083FD0026206808B9062603E0BD
:102C8000D4E90210401A28603046BDE8F08170B5E2
:102C900004460D4605B107E04FF42E72AFF2F40181
:102CA000AFF2D80005F06AFD40F66B002169814360
:102CB000216100BF0020286070BD016841F0010162
:102CC000016000BF016801F001010029FAD17047DD
:102CD00002690A43026170470146D1F8E00000F042
:102CE000020030B1D1F8E00000F0010008B101208D
:102CF00070470020FCE7000010B54FF400408B49FE
:102D0000086000BF8A488B49086000BF01218A48DB
:102D100001F0B8F80121894801F0B4F88848C0688A
:102D200020F01F0040F012008549C86000BF8448B1
:102D3000006800F00040B0F1004FF8D1814800F089
:102D400079FF8148006F40F400507F4908677E4852
:102D5000A030006840F40050C1F8A0000846D0F848
:102D6000E00040F40050C1F8E0000846D0F8E00070
:102D700040F40010C1F8E0000021744800F086FF24
:102D800000216D4801F07EF800216C4801F07AF8CE
:102D900000216F4800F07AFF03216E4800F076FFB3
:102DA00001216D4800F072FF03216C4801F06AF8C0
:102DB00001216B4800F06AFF00216A4801F062F8C7
:102DC0000121694800F062FF0021684801F05AF8CB
:102DD0000121674800F05AFF0021664801F052F8CF
:102DE00001216148183000F051FF0021624801F0D4
:102DF00049F804215548FC3800F048FF02215F489B
:102E000001F040F802215E4800F040FF02215D48D9
:102E100001F038F803215C4800F038FF01215048E8
:102E20000C3000F033FF00215348E03001F02AF865
:102E300003215548001D00F029FF012148481030AA
:102E400000F024FF00213C48001D01F01BF8032185
:102E50004E4800F01BFF01214D4800F017FF0021F4
:102E60004848001D01F00EF800214A4800F00EFF0E
:102E70000021494801F006F80121484800F006FF0A
:102E8000022134480C3000F0FDFF002134480830A6
:102E900000F0FCFE00213348083000F0F3FF012170
:102EA0003F4800F0F3FE03213848F03000F0EEFE1A
:102EB00005212F48EC3800F0E5FF0121394800F0EA
:102EC000E5FE07213148083000F0E0FE03213648D6
:102ED00000F0D8FF01213248083800F0D7FE072162
:102EE000324800F0D3FE03211A48E43800F0CAFF4C
:102EF00001212E48083800F0C9FE0721294808386A
:102F000000F0C4FE03212A4800F0BCFF002129483C
:102F100000F0B8FF0C48D0F8600120F01F002649EF
:102F2000086026482649086010BD0000C0010080E6
:102F300000366E01BC010080186C0080143900144A
:102F4000000008403090006000800D4014FB0080BD
:102F500014EA00041468008010E000401872008039
:102F60001CE007801C26008024EB00801C300080C1
:102F700024F000801C3100803C69008018640080CF
:102F800024790080186E008028E6008028F60080F2
:102F900028F0078038F307803832008020E207806D
:102FA00038EC008030F900803074008030E9008017
:102FB000207300800C20008060810D400046C323F8
:102FC000E401008010B56148006800F40030B0F5FD
:102FD000003F2BD100BF00BF00BF00BF00BFBFF349
:102FE0004F8F00BF00BF00BF00BF00BF00BFBFF3D7
:102FF0006F8F00BF00BF00BF5448006820F400304E
:103000005249086000205249086000BF00BF00BF5D
:10301000BFF34F8F00BF00BF00BF00BF00BF00BFA6
:10302000BFF36F8F00BF00BF00BF00BF47480068FD
:1030300000F48030B0F5803F01D105F081F800BF89
:1030400000BF00BF00BF00BFBFF34F8F00BF00BF76
:1030500000BF00BF00BF00BFBFF36F8F00BF00BF46
:1030600000BF3A481030006820F4803037491031F2
:10307000086036488030006820F001003349803114
:10308000086000BF33483149883108603248091D63
:1030900008603248091F08602F48801C091D08601D
:1030A0002F48091F08602F48091D08601320091FB9
:1030B00008602948801C091D08601420091F086049
:1030C00028481C38091D08602748091F0860254842
:1030D0001C38091D08602548091F0860214814385C
:1030E000091D08601D48801D091F08601D4808381B
:1030F000091D08601E48091F08601E48091D086058
:10310000042000BF00BF00BF00BFBFF34F8F00BF50
:1031100000BF00BF00BF00BF00BFBFF36F8F00BF85
:1031200000BF00BF40F00101084A8032116007492A
:103130001031096841F48031044A1032116000BF37
:1031400005F04EF805F0E8F810BD000014ED00E0C1
:1031500050EF00E0100000C03900100311000080A3
:103160001200006039000303150000201600202023
:103170001800E081290008031CB540F2024000F06D
:1031800095F90020354903460246CDE90010022199
:10319000334803F09BF900203049091D03460246DD
:1031A000CDE9001002212E48001D03F08FF941F2F5
:1031B000B0002A4900231A46CDE900100221284810
:1031C00003F072F941F2B0002449091D00231A46A8
:1031D000CDE9001002212248001D03F065F900200E
:1031E0001E49D03101231F4ACDE9001004211C489B
:1031F000D03003F06BF900201849D4310346194A46
:10320000121FCDE9001004211548D43003F05EF9F7
:1032100000201249D8310123124A0832CDE90010AA
:1032200004210F48D83003F051F900200B49DC315C
:1032300001230C4A121DCDE9001004210848DC309E
:1032400003F044F90120084900231A46CDE9001093
:1032500005210548183803F039F91CBDDC821F40F0
:10326000EC801F40F0841F4018800A4010B50446CF
:103270002CB101221221054803F0D8F804E0002205
:103280001221024803F0D2F810BD000000801B405C
:103290002DE9F04104460E46270A04F01F08062FC8
:1032A00000D805E040F2D73208A110A005F066FA78
:1032B000114800EB87052868032101FA08F18843CB
:1032C00006FA08F108432860BDE8F0812E2E5C6EF6
:1032D00078706C69625C6472697665725C66736C46
:1032E0005F636C6F636B2E6800000000696E64653D
:1032F00078203C3D2036000068C00F402DE9F041A9
:1033000004460E46270A04F01F08062F00D805E0E1
:1033100040F2D73208A110A005F030FA114800EBB6
:1033200087052868032101FA08F1884306FA08F1A5
:1033300008432860BDE8F0812E2E5C6E78706C69C1
:10334000625C6472697665725C66736C5F636C6FF5
:10335000636B2E6800000000696E646578203C3D58
:103360002036000068C00F402DE9F04104460E46AB
:10337000270A04F01F08062F00D805E040F2D732D4
:1033800008A110A005F0FAF9114800EB870528689C
:10339000032101FA08F1884306FA08F1084328607E
:1033A000BDE8F0812E2E5C6E78706C69625C647290
:1033B000697665725C66736C5F636C6F636B2E68B5
:1033C00000000000696E646578203C3D20360000F6
:1033D00068C00F402DE9F04104460E46270A04F06C
:1033E0001F08062F00D805E040F2D73208A110A030
:1033F00005F0C4F9114800EB87052868032101FA9C
:1034000008F1884306FA08F108432860BDE8F08116
:103410002E2E5C6E78706C69625C6472697665727F
:103420005C66736C5F636C6F636B2E6800000000FA
:10343000696E646578203C3D2036000068C00F400E
:103440002DE9F04104460E46270A04F01F08062F16
:1034500000D805E040F2D73208A110A005F08EF99F
:10346000114800EB87052868032101FA08F1884319
:1034700006FA08F108432860BDE8F0812E2E5C6E44
:1034800078706C69625C6472697665725C66736C94
:103490005F636C6F636B2E6800000000696E64658B
:1034A00078203C3D2036000068C00F402DE9F047F1
:1034B0000446254603274FEA152805F01F09B8F1F1
:1034C000060F00D805E040F2D73209A110A005F0A0
:1034D00055F9124800EB88063068032101FA09F11A
:1034E000884307FA09F10843306000BFBDE8F08760
:1034F0002E2E5C6E78706C69625C6472697665729F
:103500005C66736C5F636C6F636B2E680000000019
:10351000696E646578203C3D2036000068C00F402D
:103520002DE9F0470446254603274FEA152805F004
:103530001F09B8F1060F00D805E040F2D73209495B
:1035400009A005F01BF90B4800EB88063068032141
:1035500001FA09F1884307FA09F10843306000BF16
:10356000BDE8F087943F0060696E646578203C3D5B
:103570002036000068C00F402DE9F047044625467C
:1035800003274FEA152805F01F09B8F1060F00D8E8
:1035900005E040F2D732094909A005F0EFF80B48E1
:1035A00000EB88063068032101FA09F1884307FA25
:1035B00009F10843306000BFBDE8F087E4400060D7
:1035C000696E646578203C3D2036000068C00F407D
:1035D00010B5044603212046FFF7C6FE10BD10B506
:1035E000044603212046FFF7F5FE10BD2DE9F04704
:1035F0000446254603274FEA152805F01F09B8F1B0
:10360000060F00D805E040F2D73209A110A005F05E
:10361000B5F8124800EB88063068032101FA09F179
:10362000884307FA09F10843306000BFBDE8F0871E
:103630002E2E5C6E78706C69625C6472697665725D
:103640005C66736C5F636C6F636B2E6800000000D8
:10365000696E646578203C3D2036000068C00F40EC
:103660002DE9F0470446254603274FEA152805F0C3
:103670001F09B8F1060F00D805E040F2D73209A1C2
:1036800010A005F07BF8124800EB88063068032193
:1036900001FA09F1884307FA09F10843306000BFD5
:1036A000BDE8F0872E2E5C6E78706C69625C647287
:1036B000697665725C66736C5F636C6F636B2E68B2
:1036C00000000000696E646578203C3D20360000F3
:1036D00068C00F4070B50546162D6ED2DFE805F0C4
:1036E0000B0C1635464A4F54595E63686E73787DED
:1036F00082878C91979C00BF00F0B6F84B494969CE
:10370000C1F38221491CB0FBF1F48CE047484069C9
:1037100000F0400070B14548406900F0800020B1E1
:10372000012000F051FA044607E0022000F016FAEA
:10373000044602E000F098F804463C484069C0F3B3
:103740000240401CB4FBF0F46DE000F08DF8374906
:103750004969C1F38221491CB0FBF1F43348406947
:10376000C0F30120401CB4FBF0F45CE000F06CF806
:10377000044658E000BF4FF4004400BF53E00D2062
:1037800000F0D6F804464EE0294800F0D1F804468F
:1037900049E0002000F018FA044644E0012000F05F
:1037A00013FA04463FE0022000F00EFA04463AE025
:1037B000032000F009FA044635E032E01D4800F02D
:1037C000B7F804462FE01C4800F0B2F804462AE09F
:1037D000002000F0C3F9044625E0012000F0BEF906
:1037E000044620E0022000F0B9F904461BE0032063
:1037F00000F0B4F9044616E0104800F099F80446C9
:1038000011E00E48083000F093F804460BE00C4835
:1038100000F08EF8044606E00A4800F089F80446F5
:1038200001E0002400BF00BF204670BD00C00F4073
:103830000D0010000D0020000D0030000D00E00014
:103840000D0070000D00A0000448006800F010009A
:1038500008B10348704703480068FBE770820D40D9
:1038600000366E01BC01008010B52E48406900F0A2
:10387000007040B32B48806900F4405048B1B0F567
:10388000805F0BD0B0F5005F0CD0B0F5405F0ED17B
:103890000EE0254800F04CF804460BE0FFF7D4FF9B
:1038A000044607E0214800F043F8044602E000BF68
:1038B000002400BF00BF1B484069C0F3C260401C29
:1038C000B4FBF0F42BE01748806900F4402048B1C5
:1038D000B0F5802F0BD0B0F5002F0DD0B0F5402FF4
:1038E0001AD10EE0114800F023F8044616E0022039
:1038F00000F034F9044611E0002000F02FF90446EE
:103900000CE00D2000F014F80649096901F00701E8
:10391000491CB0FBF1F401E0002400BF00BF2046C9
:1039200010BD000000C00F400D0010000D00300061
:103930002DE9FF478146834BD3E90020D3E90213E9
:1039400001AC0BC4009280494846C0F30B428A5830
:1039500000F01F070123BB401A400AB1012200E01A
:1039600000221AB9002004B0BDE8F087764FC8469F
:10397000C8F30B403858C0F3813010B9FFF764FF2B
:1039800000E0002004467048C9F30B414158C1F3E0
:10399000004109B12046E6E76C49A9EB01008945E1
:1039A00045D00DDCB9F10D0F16D0A9F580100D38FA
:1039B00090B3B0F5801F70D0B0F5001F6ED112E04B
:1039C000B0F5401F6DD0B0F5E00F69D0A0F5E00074
:1039D00008380028F2D1A3E05B48006800F07F00BF
:1039E00060434408AAE05848D0F860C0006DA4FBCA
:1039F0000071624600233846FEF7F8FD054652483E
:103A0000006B00F0010010B11620444302E004EB0B
:103A1000840084002C4491E0FFE74B48006900F0EB
:103A2000020008B1162000E01420444386E0464816
:103A3000006F00F07F0A44489030D0F800C0424840
:103A4000D0F88000A4FB007001466246002338468F
:103A5000FEF7CCFD054604FB0A543B48006F00F41A
:103A6000C01018B1B0F5002F04D101E0A40802E0A5
:103A7000640800E000BF00BF3548006835490840D1
:103A8000B0F5004F04D04942084418B9A40802E038
:103A9000640800E000BF00BF50E043E04CE000E0FD
:103AA00036E02948A030006800F07F0A2648D0F8A8
:103AB000C0C0B0300068A4FB00700146624600231D
:103AC0003846FEF793FD054604FB0A541E48D0F81D
:103AD000A00000F4C01018B1B0F5002F04D101E02F
:103AE000A40802E0640800E000BF00BF18480068B6
:103AF00000F04040B0F1404F03D0B0F1804F04D10E
:103B000001E0A40802E0640800E000BF00BF15E087
:103B10000F489038006800F0030A5DF82A400DE075
:103B20000D4C0BE00848006A00F0020008B11620B6
:103B300000E01420444301E0002400BF00BF204601
:103B400011E70000C091006000800D400D00700082
:103B500070810D400080800040787D0170B5054681
:103B60001748FFF7E5FE044635B1012D0BD0022DB5
:103B700010D0032D1CD114E01248006800F03F0063
:103B8000B4FBF0F416E00F480068C0F30520B4FB66
:103B9000F0F40FE00B480068C0F30540B4FBF0F40C
:103BA00008E008480068C0F30560B4FBF0F401E0E9
:103BB000002400BF00BF04EBC4004400204670BDD9
:103BC0000D00300000810D4070B505461748FFF725
:103BD000AFFE044635B1012D0BD0022D10D0032DC0
:103BE0001CD114E01248006800F03F00B4FBF0F470
:103BF00016E00F480068C0F30520B4FBF0F40FE0B6
:103C00000B480068C0F30540B4FBF0F408E0084836
:103C10000068C0F30560B4FBF0F401E0002400BFCD
:103C200000BF04EBC4004400204670BD0D0010002E
:103C3000F0800D401449096821F4404141F480317D
:103C400002794FF4404303EA823211430E4A116075
:103C50001146096841F27F02914341F40051027814
:103C600002F07F021143084A116000BF064909684B
:103C700001F000410029F9D00349096821F480319D
:103C8000014A11607047000000800D4070B5044685
:103C90000E463F2000EA9465E0B215494158C4F34E
:103CA0004C30C4F30422904021EA0000C4F3042203
:103CB00006FA02F1C4F34C32C4F304239A401140D3
:103CC0000843E1B20A4A8850202D00D805E040F2AE
:103CD000B53208A10FA004F051FD202D07D000BF80
:103CE0000348806C0121A94008400028F8D170BD2C
:103CF00000C00F402E2E5C6E78706C69625C64723E
:103D0000697665725C66736C5F636C6F636B2E685B
:103D100000000000627573795368696674203C3D49
:103D20002043434D5F4E4F5F425553595F574149C2
:103D30005400000070B504460E463F2000EA94652A
:103D4000E0B216494158C4F34C30C4F30422904009
:103D500021EA0000C4F3042206FA02F1C4F34C3253
:103D6000C4F304239A4011400843E1B20B4A88503F
:103D7000202D00D806E040F2B532094901F12000BB
:103D800004F0FCFC202D07D000BF0448806C01210A
:103D9000A94008400028F8D170BD000000C00F40C5
:103DA000943F006070B504460E463F2000EA9465DB
:103DB000E0B216494158C4F34C30C4F30422904099
:103DC00021EA0000C4F3042206FA02F1C4F34C32E3
:103DD000C4F304239A4011400843E1B20B4A8850CF
:103DE000202D00D806E040F2B532094901F120004B
:103DF00004F0C4FC202D07D000BF0448806C0121D2
:103E0000A94008400028F8D170BD000000C00F4054
:103E10003C40006070B504460E463F2000EA9465C1
:103E2000E0B216494158C4F34C30C4F30422904028
:103E300021EA0000C4F3042206FA02F1C4F34C3272
:103E4000C4F304239A4011400843E1B20B4A88505E
:103E5000202D00D806E040F2B532094901F12000DA
:103E600004F08CFC202D07D000BF0448806C012199
:103E7000A94008400028F8D170BD000000C00F40E4
:103E8000E440006070B504460E463F2000EA9465A9
:103E9000E0B215494158C4F34C30C4F304229040B9
:103EA00021EA0000C4F3042206FA02F1C4F34C3202
:103EB000C4F304239A4011400843E1B20A4A8850EF
:103EC000202D00D805E04FF4647208A10FA004F083
:103ED00055FC202D07D000BF0348806C0121A9406C
:103EE00008400028F8D170BD00C00F402E2E5C6E37
:103EF00078706C69625C6472697665725C66736C1A
:103F00005F636C6F636B2E680000000062757379ED
:103F10005368696674203C3D2043434D5F4E4F5FBC
:103F2000425553595F5741495400000070B504464B
:103F30000E463F2000EA9465E0B215494158C4F3AB
:103F40004C30C4F30422904021EA0000C4F3042260
:103F500006FA02F1C4F34C32C4F304239A40114030
:103F60000843E1B20A4A8850202D00D805E04FF4FA
:103F7000647208A10FA004F001FC202D07D000BF3F
:103F80000348806C0121A94008400028F8D170BD89
:103F900000C00F402E2E5C6E78706C69625C64729B
:103FA000697665725C66736C5F636C6F636B2E68B9
:103FB00000000000627573795368696674203C3DA7
:103FC0002043434D5F4E4F5F425553595F57414920
:103FD0005400000070B504460E463F2000EA946588
:103FE000E0B215494158C4F34C30C4F30422904068
:103FF00021EA0000C4F3042206FA02F1C4F34C32B1
:10400000C4F304239A4011400843E1B20A4A88509D
:10401000202D00D805E04FF4647208A10FA004F031
:10402000ADFB202D07D000BF0348806C0121A940C3
:1040300008400028F8D170BD00C00F402E2E5C6EE5
:1040400078706C69625C6472697665725C66736CC8
:104050005F636C6F636B2E6800000000627573799C
:104060005368696674203C3D2043434D5F4E4F5F6B
:10407000425553595F5741495400000070B50446FA
:104080000E463F2000EA9465E0B215494158C4F35A
:104090004C30C4F30422904021EA0000C4F304220F
:1040A00006FA02F1C4F34C32C4F304239A401140DF
:1040B0000843E1B20A4A8850202D00D805E04FF4A9
:1040C000647208A10FA004F059FB202D07D000BF97
:1040D0000348806C0121A94008400028F8D170BD38
:1040E00000C00F402E2E5C6E78706C69625C64724A
:1040F000697665725C66736C5F636C6F636B2E6868
:1041000000000000627573795368696674203C3D55
:104110002043434D5F4E4F5F425553595F574149CE
:104120005400000010B50A460021036823F480748F
:10413000046002F001040CB141F0200102F002041D
:104140000CB141F0400123F480740C43046000BFC3
:1041500004680C40002CFBD1036010BD10B50B4669
:10416000002103F001040CB141F4805103F002047A
:104170000CB141F400611AB184680C43846002E020
:1041800084688C43846010BD02680B0C1B041A43C6
:1041900002608268CBB21A438260826C01F47F4372
:1041A00042EA93128264704710B5044604B105E0F8
:1041B0004FF4B1720AA111A004F0E0FA4FF480703C
:1041C0002080608040F602006060012020720002C2
:1041D00060811020A0810020A0730120E07310BD39
:1041E0002E2E5C6E78706C69625C647269766572A2
:1041F0005C66736C5F6373692E630000636F6E6649
:104200006967000070B50546002406E0094850F8CB
:104210002400A84200D102E0641C002CF6D000BFAC
:1042200004B904E0912204A10AA004F0A7FA2046F0
:1042300070BD00004C9200602E2E5C6E78706C6930
:10424000625C6472697665725C66736C5F637369E5
:104250002E630000696E7374616E6365203C2041BB
:10426000525241595F53495A4528735F63736942FB
:10427000617365732900000070B5094885690020E5
:1042800008490870064885610446A06C20F000408B
:10429000A064002201212046FFF760FF00BF70BD2F
:1042A00000C02B40020000802DE9F04704460D4677
:1042B00005B104E0CA223CA142A004F05FFA2888BC
:1042C000297A00FB01F606F00700A97A01F0070140
:1042D000084310B10420BDE8F0872046FFF792FFA5
:1042E00080463A4830F9189003214846FFF7A8F86D
:1042F00000BF204600F086F8A8896968084340F4AA
:10430000807708203249C882E87B08B147F08047AF
:104310002760287A042809D1A06840F00400A06032
:104320006888298840EA0140606303E0688840EAC1
:10433000064060636889801BC0082063A06840F065
:104340000100A060A06840F00800A0600C20204997
:10435000C88206F07F0050B94FF0404060601D48B1
:10436000806820F0700040F02000A06015E006F0AA
:104370003F0050B94FF0004060601648806820F060
:10438000700040F01000A06007E04FF080406060D7
:104390001048806820F07000A0600121204600F0E5
:1043A0001BF8002097E700002E2E5C6E78706C6979
:1043B000625C6472697665725C66736C5F63736974
:1043C0002E630000636F6E666967000050920060A4
:1043D0003002008000C02B400A46002102F0010399
:1043E0000BB141F4804102F002030BB141F40051E2
:1043F00083680B43836000BF83680B40002BFBD1B5
:104400007047000070B50446204600F02AF80020EE
:10441000A060A06840F40040A06000BFA06800F465
:1044200000400028FAD103212046FFF77BFE03213C
:104430002046FFF7D1FFA569A5610648206000204E
:104440006060A0604FF45040A0640020206360636F
:1044500070BD00000008004009B1C26200E0826245
:10446000704710B50446A06C20F00040A064002204
:1044700001212046FFF772FE10BD000010B5202478
:1044800000200E49087020210D4802F075F8202206
:104490000C490B4800F0B0FC20210B48FEF7F0F867
:1044A00001220021094801F0C1FF0321084802F060
:1044B00021FE0121064802F0F1FD10BDB50100808A
:1044C00030020080D406E0819406E08100000C40B8
:1044D0000040394010B5104880781049088204F037
:1044E00085FD0F490868804700200E4908700120AB
:1044F0000D49087020210848FEF7C2F8202206491D
:104500000A4800F079FC0321094802F0F3FD01217B
:10451000074802F0C3FD10BD9406E0813002008020
:1045200024020080B5010080B6010080B406E0815D
:104530000040394010B50F49C87800F027F84FF413
:10454000C4320D490D4800F057FC00200C4908709A
:1045500020210848FEF794F801220021094801F0C3
:1045600065FF0321084802F0C5FD0121064802F05D
:1045700095FD10BD9406E081D406E081D48EE181E2
:10458000B501008000000C40004039402DE9FC4797
:10459000044600250CB1062C00DB01244FF4C43185
:1045A0002648FEF76DF800253EE00020019001F05E
:1045B0000BFB234E4FF4C43726F01F08B819A0EBAD
:1045C00008094946404603F023FF00BF1D48008903
:1045D00041F60101884218D1601E401B0090194825
:1045E00080891849498900FB01F26B1C3146134848
:1045F00001F048FE00BF01A943F2130001F008FEDC
:104600009DF804000228F6D10DE00E48008941F221
:104610000171884207D1681CB823C822074900905D
:10462000074804F021FC6D1CA542BED34FF4C431F1
:10463000024801F0A1FFBDE8FC870000D48EE181B3
:10464000000020203002008070B50026002400BF4A
:1046500001F0BAFA002408E0224830F81400C0F350
:104660000B00204921F81400641C1F4880891E4952
:1046700049894843A042EFD81B484289818919489B
:1046800001F026FB064619490868804701211848B1
:10469000FFF7A2FE164D012211462846FFF75EFDE8
:1046A000A86C40F00040A86400BF002ED0D104F0F8
:1046B0009DFC00200F49087001200F49087020213F
:1046C0000E48FDF7DDFF20220C490D4800F094FB59
:1046D00003210C4802F00EFD01210A4802F0DEFC25
:1046E00070BD000000002020300200802402008005
:1046F00000C02B40B5010080B60100809406E08127
:10470000B406E0810040394010B51049C878FFF781
:104710003DFF4FF4C4320E490E4800F06DFB0122FC
:1047200000210D4801F082FE00BF0C4800780028EF
:10473000FBD00649C878FFF729FF20220349084823
:1047400000F05AFB00200749087010BD9406E08174
:10475000D406E081D48EE18100000C40B6010080D7
:10476000B406E0810000008010B500BF0948007861
:104770000128FBD04FF4C4320749084800F03CFB45
:1047800001220021064801F051FE01200149087074
:1047900010BD000000000080D406E081D48EE181CD
:1047A00000000C4010B5244880784FF47F4101EAA6
:1047B00000202149C9780843204948601E480079F3
:1047C0004FF47F4101EA00201B49497908431B4906
:1047D0004883194880794FF47F4101EA0020164947
:1047E000C9790843154988831348007A4FF47F41FB
:1047F00001EA00201049497A08431049C88304F0AF
:10480000F5FB0F490868804700200E490870012019
:104810000D49087020210848FDF732FF2022064983
:104820000A4800F0E9FA0321094802F063FC01217B
:10483000074802F033FC10BD9406E081300200808E
:1048400024020080B5010080B6010080B406E0813A
:10485000004039402DE9F04F07468C469146002034
:104860003946834601F801BBB9F1000F1ED0DCF8D0
:10487000004034B94FF0300B81F800B0401CBDE867
:10488000F08F10E094FBF3F808FB1345002D05DAD8
:104890002A466FEA020B0BF1310500E03035444641
:1048A00001F8015B401C002CECD125E0DCF8006035
:1048B0002EB94FF0300B81F800B0401CDFE719E053
:1048C000B6FBF3FA0AFB13620A2A01D230320DE07A
:1048D000A2F10A0BDDF824E0BEF1000F02D04FF088
:1048E000410E01E04FF0610E0BEB0E02564601F84F
:1048F000012B401C002EE3D100BFC0E710B5002102
:104900000A4800F071FC00F0040018B1084908687A
:1049100000F00EFD1021054800F066FC00F00400D8
:1049200018B10349086C00F003FD10BD00800E4073
:104930005002008010B50A210A4800F055FC00F032
:10494000040018B10849886A00F0F2FC1A210548F1
:1049500000F04AFC00F0040018B10349886E00F032
:10496000E7FC10BD00800E405002008010B50B2106
:104970000A4800F039FC00F0040018B10849C86A80
:1049800000F0D6FC1B21054800F02EFC00F00400CE
:1049900018B10349C86E00F0CBFC10BD00800E407A
:1049A0005002008010B50C210A4800F01DFC00F0F8
:1049B000040018B10849086B00F0BAFC1C21054836
:1049C00000F012FC00F0040018B10349086F00F079
:1049D000AFFC10BD00800E405002008010B50D21CC
:1049E0000A4800F001FC00F0040018B10849486BC7
:1049F00000F09EFC1D21054800F0F6FB00F00400CD
:104A000018B10349486F00F093FC10BD00800E40C0
:104A10005002008010B50E210A4800F0E5FB00F0BE
:104A2000040018B10849886B00F082FC1E2105487B
:104A300000F0DAFB00F0040018B10349886F00F0C1
:104A400077FC10BD00800E405002008010B50F2191
:104A50000A4800F0C9FB00F0040018B10849C86B0F
:104A600000F066FC1F21054800F0BEFB00F00400CA
:104A700018B10349C86F00F05BFC10BD00800E4008
:104A80005002008010B501210A4800F0ADFB00F093
:104A9000040018B10849486800F04AFC1121054893
:104AA00000F0A2FB00F0040018B10349486C00F0CC
:104AB0003FFC10BD00800E405002008010B5022166
:104AC0000A4800F091FB00F0040018B1084988681A
:104AD00000F02EFC1221054800F086FB00F00400D7
:104AE00018B10349886C00F023FC10BD00800E4013
:104AF0005002008010B503210A4800F075FB00F059
:104B0000040018B10849C86800F012FC13210548D8
:104B100000F06AFB00F0040018B10349C86C00F013
:104B200007FC10BD00800E405002008010B504212B
:104B30000A4800F059FB00F0040018B10849086960
:104B400000F0F6FB1421054800F04EFB00F00400D5
:104B500018B10349086D00F0EBFB10BD00800E405A
:104B60005002008010B505210A4800F03DFB00F01E
:104B7000040018B10849486900F0DAFB152105481E
:104B800000F032FB00F0040018B10349486D00F05A
:104B9000CFFB10BD00800E405002008010B50621F2
:104BA0000A4800F021FB00F0040018B108498869A8
:104BB00000F0BEFB1621054800F016FB00F00400D3
:104BC00018B10349886D00F0B3FB10BD00800E40A2
:104BD0005002008010B507210A4800F005FB00F0E4
:104BE000040018B10849C86900F0A2FB1721054864
:104BF00000F0FAFA00F0040018B10349C86D00F0A3
:104C000097FB10BD00800E405002008010B50821B7
:104C10000A4800F0E9FA00F0040018B10849086AEF
:104C200000F086FB1821054800F0DEFA00F00400D1
:104C300018B10349086E00F07BFB10BD00800E40E8
:104C40005002008010B509210A4800F0CDFA00F0AA
:104C5000040018B10849486A00F06AFB19210548A8
:104C600000F0C2FA00F0040018B10349486E00F0E9
:104C70005FFB10BD00800E405002008070B50546FD
:104C80000C46202C00D204E0682205A10CA003F001
:104C900075FD55F8240040F0004045F8240070BD33
:104CA0002E2E5C6E78706C69625C647269766572D7
:104CB0005C66736C5F646D616D75782E68000000D2
:104CC0006368616E6E656C203C2046534C5F4645C0
:104CD00041545552455F444D414D55585F4D4F44E9
:104CE000554C455F4348414E4E454C0070B5054616
:104CF000002406E0094850F82400A84200D102E050
:104D0000641C002CF6D000BF04B904E0562204A1B4
:104D10000AA003F033FD204670BD00006C900060D7
:104D20002E2E5C757365725C7372635C66736C5F68
:104D3000646D616D75782E6300000000696E737498
:104D4000616E6365203C2041525241595F53495A7C
:104D50004528735F646D616D757842617365732971
:104D60000000000070B505462846FFF7BFFF044964
:104D700031F9104003212046FEF78AFA00BF70BDCA
:104D80007090006070B505460C461646202C00D287
:104D900004E0862205A10DA003F0F0FC55F82400E4
:104DA00066F3060045F8240070BD00002E2E5C6EF0
:104DB00078706C69625C6472697665725C66736C4B
:104DC0005F646D616D75782E680000006368616EC8
:104DD0006E656C203C2046534C5F4645415455520D
:104DE000455F444D414D55585F4D4F44554C455FCF
:104DF0004348414E4E454C0070B506460C4615469C
:104E000006480660446085604FF480000349C8602E
:104E10000A460349034802F031FB70BDC403008019
:104E200040030080004039400FB430B5A1B00024E9
:104E3000002580216846FDF723FC25A82090094B1A
:104E40006A462099249803F009FB044621466846E7
:104E500001F0B2FB054600202090284621B030BC6E
:104E60005DF814FB694E00602DE9F04105460C46E3
:104E700016461F464FF0000800BF10E02068401C97
:104E8000802805D32846216801F096FB0020206089
:104E900020682E542068401C206008F10108B845A5
:104EA000ECDBBDE8F08100BFEFF31081084672B67D
:104EB000704700BFEFF31081084672B670470000DC
:104EC00010B5002402F096FF044641F6010084422A
:104ED00018D130490881192008824FF4D770086032
:104EE000C8204860E020488188814FF47A700883A8
:104EF0000020C881E020488288820020488388837F
:104F0000C88327E041F20170844220D12149088101
:104F100014200882062008604FF4EB7048604FF4BC
:104F2000F0604881C82088814FF4FA60088300202F
:104F3000C8814FF40A704882C82088827420488350
:104F400040F2AB30888340F2E560C88302E04FF066
:104F5000FF3010BD00F0DEFD0E48008941F6010172
:104F6000884207D10C480D4908600D4848600D483B
:104F700088600CE00748008941F20171884206D13F
:104F800009480649086009484860094888600020C7
:104F9000DFE7000030020080BD7B0060240200805B
:104FA000B17C0060E17C0060717E00609D7F0060EC
:104FB000C97F00602DE9F04105460E4614461F46A4
:104FC00004B900BF1548007888B1154800789028CA
:104FD00006D100201149087090201249087005E0A0
:104FE00020220F491048FFF707FF00BF14E00022FE
:104FF00011460E4801F01AFA0120084908702022D3
:1050000007490948FFF7F8FE0321094802F076F83E
:105010000121074802F058F8BDE8F081B601008090
:105020009406E081B5010080B406E08100000C40E8
:10503000004039402DE9F04705460F46164605B1B8
:1050400005E040F2F71226A12BA003F097FB202EDB
:1050500000D205E04FF4FC7221A12BA003F08EFBDF
:1050600018212846FDF70CFBAF602E74384600F07F
:1050700027F9804601F008FA8146A8EB090006EB03
:10508000401A2C4840F82A502B4901EB881131F97D
:10509000160010F1800F00D10EE00146002909DB57
:1050A00001F01F0301229A404B099B0003F1E0230A
:1050B000C3F8002100BF00BFA86800F58050297C1C
:1050C00000EB411400202060A080E080A060E06040
:1050D0002061A082E082A061A083E083BDE8F08728
:1050E0002E2E5C757365725C7372635C66736C5FA5
:1050F00065646D612E63000068616E646C652021DB
:105100003D204E554C4C00006368616E6E656C200E
:105110003C2046534C5F464541545552455F4544FB
:105120004D415F4D4F44554C455F4348414E4E45C0
:105130004C000000500200807A90006070B5044678
:105140000D461646202D00D204E0D82215A11BA042
:1051500003F014FB06F0010020B160690121A940B1
:105160000843606106F0020058B104F5805000EB7E
:105170004510808B40F0020104F5805000EB451093
:10518000818306F0040058B104F5805000EB45100F
:10519000808B40F0040104F5805000EB45108183C2
:1051A00070BD00002E2E5C757365725C7372635C5B
:1051B00066736C5F65646D612E6300006368616E89
:1051C0006E656C203C2046534C5F46454154555219
:1051D000455F45444D415F4D4F44554C455F434805
:1051E000414E4E454C00000070B506460C46202C42
:1051F00000D205E040F2C1120DA113A003F0BEFAE7
:10520000002506F5805000EB4410808BC0F3C010E1
:105210000543F06AE04000F0010045EA4005706A8D
:10522000E04000F0010045EA8005284670BD00001E
:105230002E2E5C757365725C7372635C66736C5F53
:1052400065646D612E6300006368616E6E656C203D
:105250003C2046534C5F464541545552455F4544BA
:105260004D415F4D4F44554C455F4348414E4E457F
:105270004C00000010B5044604B104E0962206A1DB
:105280000BA003F07BFA0020A070012060700020CA
:105290002070E07010BD00002E2E5C757365725C8E
:1052A0007372635C66736C5F65646D612E6300008E
:1052B000636F6E66696720213D204E554C4C00009F
:1052C00070B50546002406E0094850F82400A842BD
:1052D00000D102E0641C002CF6D000BF04B904E049
:1052E0005F2204A109A003F049FA204670BD000026
:1052F000749000602E2E5C757365725C7372635CD3
:1053000066736C5F65646D612E630000696E737413
:10531000616E6365203C2041525241595F53495AA6
:105320004528735F65646D61426173657329000090
:105330002DE9F047044604B105E04FF455722EA163
:1053400033A003F01BFA207CA168C877E06840B95D
:10535000206830B1002301222046D4E90051A8473B
:1053600047E0A06800F58050217C00EB4110D0F8A8
:105370001880A06800F58050217C00EB4110808BE4
:10538000C0F3C019E068A8EB00084FEA5817B9F15C
:10539000000F01D0FEB206E00FB1781E02E094F9D2
:1053A0001400401EC6B294F91100B0420AD194F91B
:1053B000130094F91410884202D194F9135009E0B3
:1053C000002507E094F91100351A002D02DA94F94E
:1053D0001400054470B26074E07C401B40B2E0747D
:1053E000206828B12B464A462046D4E900C1E04750
:1053F00000BFBDE8F08700002E2E5C757365725CFF
:105400007372635C66736C5F65646D612E6300002C
:1054100068616E646C6520213D204E554C4C000047
:105420002DE9F04105460C4604B104E07C2215A1AB
:105430001AA003F0A3F92846FFF742FF1B4931F9F0
:10544000107003213846FDF759FF00BF2E6826F083
:105450005606A078042101EA80006178102202EA51
:10546000011108432178402202EA81110843E178C2
:10547000022202EA4101084340F0800006432E6008
:10548000BDE8F0812E2E5C757365725C7372635C8F
:1054900066736C5F65646D612E630000636F6E669A
:1054A000696720213D204E554C4C000078900060EB
:1054B0002DE9F05F81460D4692469B46B9F1000FFB
:1054C00000D005E040F2EA3237A13FA003F056F9E0
:1054D00005B105E040F2EB3233A13EA003F04EF9F6
:1054E0002C4600BF4248D0F85C8008F01F08B8F195
:1054F000000FF7D100BF3E48406900F4407000281B
:10550000F9D040F6B83800BFB8F10000A8F10108A2
:10551000FAD13749C8610846C06DC0F30448354820
:10552000076B02E03248466F40C73148006F00F019
:1055300002000028F6D00321206801F0A7FD606872
:105540008079F8B100BF206801F022FE0028FAD06F
:105550002068416F0E466068C06898B1616849690B
:10556000D4F804C09CF805C0A1EB0C01D4F804C029
:10557000DCF80CC001EB0C0061680B784A7931460D
:1055800001F01CFE0020616881F82C006068406B0F
:1055900038B162681146936B2068D2F834C000229B
:1055A000E047BDE8F09F00002E2E5C757365725CCD
:1055B0007372635C66736C5F6C707370695F656453
:1055C0006D612E630000000065646D6148616E646A
:1055D0006C650000675F6C7073706945646D615045
:1055E00072697661746548616E646C6500000000E4
:1055F0000040394000900E4070B505460C46202C06
:1056000000D204E0A02205A10AA003F0B7F805F536
:10561000805101EB441000F0F9F870BD2E2E5C753E
:105620007365725C7372635C66736C5F65646D61F5
:105630002E6300006368616E6E656C203C204653EB
:105640004C5F464541545552455F45444D415F4D81
:105650004F44554C455F4348414E4E454C00000079
:1056600070B504460E46154604B105E04FF40C72C1
:1056700003A109A003F082F82660656070BD0000F8
:105680002E2E5C757365725C7372635C66736C5FFF
:1056900065646D612E63000068616E646C65202135
:1056A0003D204E554C4C00002DE9F04107460C467C
:1056B00015461E46202C00D204E0A7220EA114A0FD
:1056C00003F05CF805B104E0A8220BA11BA003F0D5
:1056D00055F806F01F0000B904E0A92206A11BA09E
:1056E00003F04CF807F5805101EB4410324629468F
:1056F00000F0D2F8BDE8F0812E2E5C757365725C07
:105700007372635C66736C5F65646D612E63000029
:105710006368616E6E656C203C2046534C5F464565
:1057200041545552455F45444D415F4D4F44554CA2
:10573000455F4348414E4E454C000000636F6E6626
:10574000696720213D204E554C4C00002828756982
:105750006E7433325F74296E6578745463642026E6
:1057600020307831465529203D3D20300000000092
:1057700070B5044604B105E040F2123219A11FA031
:1057800002F0FCFFE06828B9207C00F01F00A1684F
:10579000C87626E0A06800F58050217C00EB41151A
:1057A000607D40F080006075A869C8B1FFF77BFBA1
:1057B0000646A068C068227C01219140084060B97B
:1057C000A88B00F0800018B1A88B00F0100020B169
:1057D000207C00F01F00A168C876304600F0E2F897
:1057E00000BF70BD2E2E5C757365725C7372635C56
:1057F00066736C5F65646D612E63000068616E6442
:105800006C6520213D204E554C4C000010B50446DF
:1058100004B105E04FF483720EA114A002F0AEFFB4
:1058200004F01F0000B905E040F2071209A112A020
:1058300002F0A4FF00202060A080E080A060E06073
:105840002061A082E082A0610820A0830020E08384
:1058500010BD00002E2E5C757365725C7372635C04
:1058600066736C5F65646D612E6300007463642011
:10587000213D204E554C4C00282875696E743332FA
:105880005F742974636420262030783146552920BE
:105890003D3D20300000000070B504460D46164620
:1058A00004B105E04FF48D7220A126A002F066FF3E
:1058B00004F01F0000B905E040F21B121BA124A058
:1058C00002F05CFF05B105E04FF48E7217A128A02D
:1058D00002F054FF06F01F0000B905E040F21D126F
:1058E00012A127A002F04AFF2868206068682061A2
:1058F000287A4FF4E06101EA0020697A01F007019B
:105900000843E0806889A080A889A0822869A060F7
:10591000A88AE082A88AE08336B1A661A08B20F035
:10592000080040F01000A08370BD00002E2E5C75B2
:105930007365725C7372635C66736C5F65646D61E2
:105940002E63000074636420213D204E554C4C00B2
:10595000282875696E7433325F7429746364202655
:1059600020307831465529203D3D20300000000090
:10597000636F6E66696720213D204E554C4C0000D8
:10598000282875696E7433325F74296E6578745493
:105990006364202620307831465529203D3D203053
:1059A0000000000000BF80F3108800BF704700BFF8
:1059B00080F3108800BF7047F0B5044601252768C2
:1059C000C7F3011636B1012E05D0022E04D0032EE6
:1059D0000AD103E000BF00BF012506E00F790FB137
:1059E000012500E0002500E000BF00BF15B14FF425
:1059F00080701BE0DFF838C00F68674501D379205D
:105A000014E08F7C4FF47A7C17FB0CF34B27B3FB2D
:105A1000F7F2C2EB021707EB87079F4200D2521C36
:105A20004FF4FC4707EA422747F48070F0BD0000BE
:105A300000E1F50570B50546002406E0094850F878
:105A40002400A84200D102E0641C002CF6D000BF64
:105A500004B904E0832204A10BA002F08FFE2046CB
:105A600070BD0000549200602E2E5C6E78706C69E0
:105A7000625C6472697665725C66736C5F666C65A5
:105A8000787370692E630000696E7374616E63656C
:105A9000203C2046534C5F464541545552455F5388
:105AA0004F435F464C45585350495F434F554E5402
:105AB0000000000010B5FDF785FAFDF75DFBFDF76E
:105AC0001BF9032000F0BEF800F094F800F03EFB54
:105AD00000F078FB4FF4FA7000F008F800F02AFAB2
:105AE00000F01AFB00F0F6F910BD000008B5002127
:105AF0000BE00022009203E000BF009A521C0092CB
:105B0000034B009A9A42F7D3491C8142F1D308BD56
:105B1000C0D4010030B589B00025002008900024D1
:105B200020216846FCF7ACFD4023244A2821244864
:105B3000FCF715FEFFF7BDF9044608A92048FCF75D
:105B400013FE05462046FFF732FFFFF7B2F9044681
:105B500020236A464FF448211948FCF70AFE2046E4
:105B6000FFF725FF1748C089012805D0BDF80800B8
:105B70001449098988421AD0FFF79BF904464FF46B
:105B800048210F48FCF7FAFD05462046FFF70FFFB6
:105B9000FFF78FF9044620230A4A4FF448210848AA
:105BA000FCF7F1FD05462046FFF701FF04E0202247
:105BB00069460448FCF74BFD09B030BD60910060B8
:105BC00000802A403002008010B5084948688047AC
:105BD00000BF074800780028FBD104498868804747
:105BE000012003490870002010BD0000240200803D
:105BF000020000800EB50F480068029000200E4998
:105C000003460246CDE9001005210C4800F06BFC6C
:105C100041F2B000084900231A46CDE900100521E1
:105C2000064800F047FC02AA0421054800F088FB62
:105C30000EBD00004C900060D4831F40E4811F40E3
:105C400000001C4000BF00F00702064B19684FF629
:105C5000FF031940044B0B4343EA0221014B196037
:105C600000BF70470CED00E00000FA0510B50348D6
:105C7000817843F2021000F0E5FA10BD9406E0814D
:105C80002DE9F041054600BF00BF48F2D630684319
:105C90000E49098B90FBF1F4C4F30726E7B2B4F583
:105CA0007A7F01D24FF47A740849088B611C02F0A4
:105CB00018F831464FF4445000F0C4FA394643F224
:105CC000011000F0BFFABDE8F08100003002008052
:105CD000F8B504460D4616460027002000906B4696
:105CE00032462946204602F0ADFF07469DF80300E4
:105CF0009DF8021040EA0120084909680844074954
:105D000008609DF801009DF8001040EA0120034959
:105D100049680844014948603846F8BD30020080AF
:105D20001FB504466846FEF73FFA20798DF8080053
:105D3000A07B18B91020ADF80C000EE0A07B012864
:105D400003D10020ADF80C0007E0A07B022803D1AE
:105D50004002ADF80C0000E01FBDA089ADF80A00BC
:105D600000208DF80E0001208DF80F00A068000CB7
:105D7000ADF80200208980B2ADF80000002001904B
:105D8000207C00F0010018B1019840F400600190FF
:105D9000207C00F00200022803D1019840F00200AC
:105DA0000190207C00F00400042803D0019840F406
:105DB0000030019069460248FEF776FA00BFCBE753
:105DC00000C02B4000B587B001213548FEF702F92D
:105DD00007213448FDF7E6FF2020039000208DF8CE
:105DE00010008DF811008DF812008DF813008DF859
:105DF00014008DF815008DF8160003A92A4801F04B
:105E000067FA2A480068029002AA0021284800F098
:105E100097FA00221146264800F008FB2548FEF7B5
:105E2000A1FF06A8FFF726FA06A92348FFF7F8FA0C
:105E30004FF4877200211F48FEF7A4FF40F20D12B5
:105E400001211C48FEF79EFF00211A48FEF716FFAD
:105E500001211848FEF712FF002217491748FFF7E3
:105E6000E9F8012214491648FFF7E4F813481449E9
:105E70000023144ACDE9001013490B4801F094FAAD
:105E8000202212491248FEF7B7FF0321064801F00D
:105E900035F90121044801F017F907B000BD0000F1
:105EA0001864008018FA008000403940BC900060FF
:105EB00000000C4000C00E4000800E401003008027
:105EC00028030080B54F0060400300809406E08105
:105ED000B406E08110B586B00024FEF7F1FF044659
:105EE0000CB106B010BD18220F496846FCF7AFFB95
:105EF0000E4840890D49898940EA014002900B48CB
:105F00004089ADF80C006846FFF70AFF0120FDF755
:105F1000ADF9012001F03CFE0020FDF7A7F904498E
:105F20000868804700BFDCE75490006030020080C2
:105F3000240200801CB540F20240FDF7F1FA002077
:105F4000724903460246CDE900100521704800F071
:105F5000D7FA00206D49083103466E4ACDE900109A
:105F600004216B48083000F0CBFA002067490C315F
:105F700003460246CDE90010042165480C3000F0CC
:105F8000BFFA0020614910310123624A121DCDE998
:105F9000001004215E48103000F0B2FA00205B4986
:105FA000143101235B4A121FCDE900100421584827
:105FB000143000F0A5FA0020544918310346554A20
:105FC000083ACDE9001004215148183000F098FA41
:105FD00000204E491C3103464E4A0C3ACDE90010D0
:105FE00004214B481C3000F08BFA00204749203137
:105FF0000346484A103ACDE90010042144482030B5
:1060000000F07EFA0020414924310346414A143A07
:10601000CDE9001004213E48243000F071FA002040
:106020003A49283103463B4A183ACDE90010042189
:106030003748283000F064FA002034492C310346F8
:10604000344A1C3ACDE90010042131482C3000F0CC
:1060500057FA00202D49303103462E4A203ACDE927
:10606000001004212A48303000F04AFA0020274965
:1060700034310346274A243ACDE90010042124484C
:10608000343000F03DFA00202049983103460246A2
:10609000CDE9001002211E48983000F031FA0020AE
:1060A0001C49943903460246CDE9001002211848E4
:1060B0009C3000F025FA002016499039034602462C
:1060C000CDE9001002211248A03000F019FA00209A
:1060D00010498C3903460246CDE9001002210C48D4
:1060E000A43000F00DFA00200A498C39034602461C
:1060F000CDE9001002210648A43000F001FA03485F
:1061000041F2B00100B1016000BF1CBDF4821F402C
:1061100004811F4024841F4008B50848006800908F
:1061200000210748FDF702FF00210648FDF702FEA7
:106130006A461221044800F003F908BD509000603F
:106140003C6900803CEB008000801B401CB540F2A5
:106150000240FDF711FA012017490346174ACDE91D
:1061600000100321164800F0D8F901201249091D3A
:106170000346124A121DCDE9001003211048001DEC
:1061800000F0CBF94FF6B0000B4901230B4ACDE9E3
:10619000001003210A4800F093F94FF6B0000649B9
:1061A000091D0123054A121DCDE9001003210448F1
:1061B000001D00F085F91CBDEC821F40CC841F40FF
:1061C000FC801F4010B588B000210D48FDF756FF38
:1061D00005210C48FDF71EFE01A800F03FFB0A4810
:1061E00003900720FDF776FAC0080621B0FBF1F412
:1061F000224601A9054800F057FB08B010BD000079
:106200003832008038F30780E093040000003F40FC
:1062100030B587B005460C463020ADF808000120A7
:106220008DF80A0003950220049005940120069041
:106230000020019001A9024800F018FD07B030BD10
:1062400000003F4030B587B004460D46182168462F
:10625000FCF716FA06953020ADF8040000208DF802
:10626000060002940220039006A8049001200590E5
:10627000002000906946024800F0F8FC07B030BDED
:1062800000003F40F0B50446059D75B1002009E0CF
:1062900034F8106031F81070C7F30B073E4424F84F
:1062A0001060401C9042F3DB0FE000200BE034F85C
:1062B000106031F81070C7F30B073E4496FBF3F6FD
:1062C00024F81060401C9042F1DBF0BD70B505462B
:1062D000002406E0094850F82400A84200D102E05A
:1062E000641C062CF6D300BF062C00D204E0542216
:1062F00003A10AA002F042FA204670BD2892006075
:106300002E2E5C6E78706C69625C64726976657260
:106310005C66736C5F6770696F2E6300696E73747F
:10632000616E6365203C2041525241595F53495A86
:106330004528735F6770696F426173657329000058
:106340002DE9F04104460D4616462046FFF7BEFFF4
:10635000124931F910703846FDF748F9606901219A
:10636000A94088436061307828B960680121A9405C
:106370008843606009E072782946204600F056F8AC
:1063800061680120A84001436160B7783A46294618
:10639000204600F005F800BFBDE8F08140920060A3
:1063A000F0B503460C462146DD690126A640B543FB
:1063B000DD61102C02D203F10C0002E003F11000A9
:1063C0001039062A2ED2DFE802F02D030A15202705
:1063D00005684F000326BE40B543056023E005680D
:1063E0004F000326BE40B5434F000126BE40354353
:1063F000056018E005684F000326BE40B5434F0016
:106400000226BE40354305600DE005684F000326B7
:10641000BE403543056006E0DD690126A6403543F0
:10642000DD6100E000BF00BFF0BD000070B50446B4
:106430000D461646202D00D204E0742208A10FA0BC
:1064400002F09CF92EB920680121A9408843206000
:1064500004E021680120A8400143216070BD0000D4
:106460002E2E5C6E78706C69625C647269766572FF
:106470005C66736C5F6770696F2E630070696E2075
:106480003C2033320000000010B50448FEF718FF2E
:10649000034908700846007810BD000000800E40D7
:1064A000B401008000BFFEE730B5DDE9034504B16B
:1064B000256030BD30B5DDE9034504B1256030BD50
:1064C00030B5DDE9034504B1256030BDF0B5DDE947
:1064D000055401F00706102707EA04173E4306603B
:1064E00002B11360F0BDF0B5DDE9055401F0070617
:1064F000102707EA04173E43066002B11360F0BD9F
:10650000F0B5DDE9055401F00706102707EA041786
:106510003E43066002B11360F0BDF0B5DDE90554FD
:1065200001F00706102707EA04173E43066002B190
:106530001360F0BD2DE9F04104460D4616460027D4
:106540000C48007902280FD136B10A492A4608685A
:10655000214601F0EDFA06E006492A460868214680
:1065600001F06CFA074601E0012700BF00BF384682
:10657000BDE8F081E80100802DE9F04104460D46B8
:1065800024F01F062819871B3946304601F0B2FD5A
:10659000BDE8F08170B505460C4600264CB145B10A
:1065A000012636B1012221462846FFF7C3FF00B17C
:1065B0000024204670BD000070B504460D4604B1AD
:1065C00005E040F23F1204A10CA002F0D7F82946E2
:1065D0002046FFF7DFFF70BD2E2E5C6E78706C6971
:1065E000625C7574696C69746965735C6C6F675C17
:1065F00066736C5F6C6F672E6300000062756620C7
:10660000213D204E554C4C0010B50121014800F0B1
:106610002DF810BD00003F4010B50221014800F0E8
:1066200025F810BD00403F4010B50321014800F09F
:106630001DF810BD00803F4010B50421014800F056
:1066400015F810BD00C03F4070B50546284600F063
:1066500028F9044604F0007028B104F0807010B9E5
:106660004FF4617070BD0020FCE7000070B5044677
:106670000D46206900F0010048B10D48006830B1B6
:106680000C4850F825102046094A12689047D4F863
:10669000100100F0010048B10748006830B1074818
:1066A00050F825102046044A1268904770BD00003B
:1066B000D80100800C040080DC01008020040080F0
:1066C0002DE9F04705460E4691461F4605B104E008
:1066D000D22214A11BA002F051F807B104E0D3228A
:1066E00010A11DA002F04AF8B5FBF7F04FF47A7143
:1066F000B0FBF1F01C49B1FBF0F8002400E0641C91
:10670000601C00FB08F0B04202D2601C4845F6D382
:106710002CB906EB8600B8EB400F00D801242046C8
:10672000BDE8F0872E2E5C6E78706C69625C6472D6
:10673000697665725C66736C5F6C706932632E6338
:1067400000000000736F75726365436C6F636B5F6D
:10675000487A203E203000007072657363616C657A
:1067600072203E203000000040420F0070B5054608
:10677000002407E0074850F82400A84201D1204631
:1067800070BD641C052CF5D3C22203A10AA001F040
:10679000F5FF0000009200602E2E5C6E78706C6930
:1067A000625C6472697665725C66736C5F6C70695A
:1067B00032632E630000000066616C7365000000A8
:1067C00070B505460C46002604F47054002C26D003
:1067D00004F4005010B140F28A3618E004F400606E
:1067E00010B140F2893612E004F4806010B140F23A
:1067F00086360CE004F4805010B140F2873605E094
:106800004FF4877207A10FA001F0B8FF00BF214627
:10681000284600F01BF8286940F440702861304693
:1068200070BD00002E2E5C6E78706C69625C6472C4
:10683000697665725C66736C5F6C706932632E6337
:106840000000000066616C736500000041617047E4
:10685000026961F3000202617047000001210170CA
:1068600000218170012141700021C1700171064930
:1068700081600021C160016101754175817500224F
:10688000C275012202767047A08601001AB1C36D5D
:1068900003F00703136019B1C36DC3F302430B6028
:1068A00070470146486970472DE9F05F05460C4680
:1068B00091462846FFF75AFF8346474931F91B00A6
:1068C000FCF78DFE284600F0DBF8A078082101EAED
:1068D000C000617809B9012100E00021042202EA28
:1068E0008101084328612F6A27F00707A07D00F087
:1068F0000100217E022202EA41010843E17D0422D7
:1069000002EA8101084307432F626F6A3348074058
:1069100020794FF0E06101EA00600743E078D1019F
:1069200001EA402007436F62002001464FF44032E5
:1069300002EA01420243AA6500BF49462846A2680E
:1069400000F0DCF8686A00F0070AAE6AE06860B13F
:10695000534640F6FF724846E168FFF7B1FE8046B5
:106960006FF30B06C8F30B000643207D68B1217D51
:1069700001230F224846FFF7A3FE804626F07066EB
:106980004FF0706000EA08600643607D68B1617D89
:1069900001230F224846FFF793FE804626F4702617
:1069A0004FF4702000EA08400643AE62206960B1EF
:1069B0002069010A534640F6FF724846FFF780FE01
:1069C0008046E86A68F31320E86221782846FFF7DA
:1069D0003FFFBDE8F09F00001E920060FFFDFFF842
:1069E0002DE9F04706460F46144607B105E040F290
:1069F000832219A120A001F0C1FE14B90020BDE836
:106A0000F087304600F002FA05460DB12846F6E759
:106A1000601EC0B240F480703066B84615E000BF1A
:106A20003046FFF73EFF824651463046FFF7C8FE2C
:106A300005460DB12846E2E7D6F8709009F480408B
:106A40000028EDD108F8019B00BF201EA4F101042D
:106A5000E5D100BFD3E700002E2E5C6E78706C6924
:106A6000625C6472697665725C66736C5F6C706997
:106A700032632E6300000000727842756666000083
:106A80000221016100210161704700002DE9F04100
:106A900006460C461746254604B105E040F2BF22E3
:106AA0000CA114A001F06AFE0DE0304600F0AEF932
:106AB0008046B8F1000F02D04046BDE8F08115F8DD
:106AC000010B306600BF381EA7F10107EDD100BFF2
:106AD000F3E700002E2E5C6E78706C69625C647265
:106AE000697665725C66736C5F6C706932632E6385
:106AF0000000000074784275666600002DE9F74FCB
:106B000084B00546914600240020039000260290A0
:106B10004FF0FF3B286900F001000090002128465B
:106B2000FFF796FE012438E0012732E0012F0AD159
:106B30000598B0FBF4F10220B0FBF4F0801DB1FB2E
:106B4000F0F001900CE00598B0FBF4F10220B0FBEE
:106B5000F4F207EB4700801C1044B1FBF0F0019009
:106B60000198814503D90198A9EB000002E0019842
:106B7000A0EB090002900298584509D203943E46C2
:106B8000DDF808B0DDF808B0BBF1000F00D102E07D
:106B90007F1C202FCAD300BF6400802C02D8BBF119
:106BA000000FC1D14FF47C5000EA062A022E03D216
:106BB0001A484AEA000A0EE0F0064FF47C1101EA96
:106BC000064141EA906071084FF07C5202EA01618F
:106BD000084340EA0A0AC5F848A04FF000080AE056
:106BE000012000FA08F00399884202D1CDF80C8008
:106BF00004E008F10108B8F1080FF1DB00BF0398C9
:106C0000696A60F302016962009818B1012128469F
:106C1000FFF71EFE07B0BDE8F08F00000300020181
:106C200070B50546284600F0F1F804460CB1204640
:106C300070BD4FF40070286612E02846FFF731FE61
:106C4000064631462846FFF7BBFD044606F40070B1
:106C500028B14FF400712846FFF7F8FD02E000BFAD
:106C6000002CEAD000BF2046E2E700002DE9FF47F4
:106C700005460C460026002704B105E04FF43672A5
:106C800048A150A001F07AFDE068042800D805E092
:106C900040F2D92243A14EA001F070FD2846FFF733
:106CA000D3FC06461EB1304604B0BDE8F0874FF471
:106CB000FE412846FFF7CAFD686A20F480706862CA
:106CC000E06808B1002000E0A0798146207800F05B
:106CD000010060B9A0884FF6FF7101EA400040EA68
:106CE000090040F4806238467F1C2DF81020E068CF
:106CF00078B1E06808E0C300A268DA40D1B23A4651
:106D00007F1C2DF8121000BF011EA0F10100F2D16E
:106D100000BF606988B1A07901280ED1B9F1000FD8
:106D20000BD1A0884FF6FF7101EA4000401C40F4EF
:106D3000806238467F1C2DF810204FF000080BE0D1
:106D4000284600F063F806460EB13046ACE73DF841
:106D50001800286608F10108381EA7F10107EFD1D5
:106D6000A07938B9606928B12846D4E90412FFF740
:106D70008DFE0646A079012807D1606928B1284612
:106D8000D4E90412FFF72CFE06460EB130468BE71D
:106D9000207800F0040018B92846FFF741FF0646A6
:106DA000304681E72E2E5C6E78706C69625C64728E
:106DB000697665725C66736C5F6C706932632E63B2
:106DC000000000007472616E73666572000000005E
:106DD0007472616E736665722D3E73756261646470
:106DE0007265737353697A65203C3D2073697A65D7
:106DF0006F66287472616E736665722D3E7375627C
:106E0000616464726573732900000000F8B505467B
:106E1000042600BF6A4600212846FFF737FD009888
:106E2000301A00902846FFF73CFD074639462846B1
:106E3000FFF7C6FC04460CB12046F8BD00980028B8
:106E4000E8D00020F9E7000010B50848406800B11C
:106E500005E040F2DA6206A10DA001F08FFC0348C4
:106E60004168104800F0FAF810BD0000D40300801B
:106E70002E2E5C6E78706C69625C647269766572E5
:106E80005C66736C5F6C707370692E630000000049
:106E9000735F6C7073706948616E646C655B315DC3
:106EA000000000000040394010B50848806800B17B
:106EB00005E040F2E26206A10DA001F05FFC03488C
:106EC0008168104800F0CAF810BD0000D4030080AB
:106ED0002E2E5C6E78706C69625C64726976657285
:106EE0005C66736C5F6C707370692E6300000000E9
:106EF000735F6C7073706948616E646C655B325D62
:106F0000000000000080394010B50848C06800B19A
:106F100005E040F2EA6206A10DA001F02FFC034853
:106F2000C168104800F09AF810BD0000D40300803A
:106F30002E2E5C6E78706C69625C64726976657224
:106F40005C66736C5F6C707370692E630000000088
:106F5000735F6C7073706948616E646C655B335D00
:106F60000000000000C0394010B50848006900B1B9
:106F700005E040F2F26206A10DA001F0FFFB03481C
:106F80000169104800F06AF810BD0000D4030080C9
:106F90002E2E5C6E78706C69625C647269766572C4
:106FA0005C66736C5F6C707370692E630000000028
:106FB000735F6C7073706948616E646C655B345D9F
:106FC0000000000000003A4070B504460E46154629
:106FD00004B105E040F2452214A11CA001F0CEFB53
:106FE000A06808B9002070BD206818B9606808B9A9
:106FF0000020F8E7042D07D8A068B0FBF5F105FBE9
:10700000110088B10020EEE705F0030020B1A06870
:10701000A84209D00020E6E7A068B0FBF5F105FB27
:10702000110008B10020DEE70120DCE72E2E5C6EA7
:1070300078706C69625C6472697665725C66736CA8
:107040005F6C707370692E63000000007472616E73
:1070500073666572000000004161704770B50446B8
:107060000D4600BF606A00F0010028B129462046A5
:10707000044A1268904704E029462046024A1268F2
:10708000904770BDC4010080C8010080C2698A4376
:10709000C261704782698A438261704721B1026987
:1070A00042F00102026103E0026922F00102026182
:1070B000704721B1026942F00102026103E00269F6
:1070C00022F001020261704721B1026942F001021F
:1070D000026103E0026922F001020261704721B1FE
:1070E000026942F00102026103E0026922F001023A
:1070F00002617047C2690A43C2617047C2690A43AC
:10710000C261704710B50B0243EA4223046923436E
:10711000036110BD70B50546002400BF07E00A48B2
:1071200050F82400A84200D103E0601CC4B2052C32
:10713000F5D300BF052C00D204E0B02203A10BA0C0
:1071400001F01CFB204670BDD89100602E2E5C6EB5
:1071500078706C69625C6472697665725C66736C87
:107160005F6C707370692E6300000000696E737449
:10717000616E6365203C2041525241595F53495A28
:107180004528735F6C707370694261736573290081
:107190000146C86DC0F30440704701464868020AC2
:1071A000012090407047016941F0020101610169CD
:1071B00041F4407101610021016170472DE9F04106
:1071C00004460D4617461E4604B104E066221AA185
:1071D00021A001F0D3FA012F04D0022F0AD0042FEE
:1071E00022D115E016B92570641C02E0280E20702B
:1071F000641C1EE02EB92570641C280A2070641CD3
:1072000005E0280C2070641C280E2070641C10E01F
:107210002570641C280A2070641C280C2070641CD3
:10722000280E2070641C04E0962203A10CA001F03B
:10723000A5FA00BFBDE8F0812E2E5C757365725C07
:107240007372635C66736C5F6C707370695F6564A6
:107250006D612E630000000072784461746100006B
:1072600066616C736500000070B505460C462846E3
:10727000FFF750FF06460148845570BDCC010080E1
:1072800010B501F00F034FF4702404EA02442343C5
:10729000836510BD10B501F00F034FF4702404EAAC
:1072A00002442343836510BD426A61F300024262D7
:1072B000704770B50023446A01F108050126AE400D
:1072C00024EA06032C4602FA04F41C43446270BD0F
:1072D00070B505460C4604B105E04FF4837226A153
:1072E0002DA001F04BFA2846FFF714FF06462D4962
:1072F00031F91600FCF76CF92846FFF754FF00211E
:107300002846FFF7D1FF227AE1792846FFF7D1FF1F
:10731000686A20F0E060A17A4FF0806202EA816141
:107320000843617A4FF0407202EA016108436862E3
:10733000002211462846FFF7ADFF20794FF00041AB
:1073400001EAC07061794FF0804202EA817108431E
:10735000A179D21102EAC15108432188491EC1F323
:107360000B010843286600212846FFF77DFF012115
:107370002846FFF7B4FE70BD2E2E5C6E78706C69E7
:10738000625C6472697665725C66736C5F6C707364
:1073900070692E6300000000736C617665436F6E48
:1073A00066696700F69100602DE9F04706460C46D5
:1073B00017469846DDE9089A04B105E040F27622C6
:1073C00017A11FA001F0DAF9B9F1000F00D005E014
:1073D00040F2772212A11CA001F0D0F9BAF1000FFF
:1073E00000D005E04FF41E720DA11DA001F0C6F9FA
:1073F00084212046FBF744F93046FFF78BFE451EFB
:107400001D4840F8356000EBC50044606763C4F870
:107410003880C4F83C90C4F840A0BDE8F087000074
:107420002E2E5C757365725C7372635C66736C5F41
:107430006C707370695F65646D612E63000000009D
:1074400068616E646C65000065646D6152785265B8
:1074500067546F52784461746148616E646C650072
:1074600065646D61547844617461546F54785265F9
